:0E0000007589117D827C027D82D290758A44C2
:0E000E00758CFCD28C308DFDC28CC28DC290E0
:0F001C00758A44758CFCD28C308DFDC28CC28DE0
:0F002B00DDDCDCD87D8A7C027D8AD290758AADBF
:0E003A00758CFCD28C308DFDC28CC28DC290B4
:0F004800758AAD758CFCD28C308DFDC28CC28D4B
:0F005700DDDCDCD87DA47C027DA4D290758A0A02
:0E006600758CFDD28C308DFDC28CC28DC29087
:0F007400758A0A758CFDD28C308DFDC28CC28DC1
:0F008300DDDCDCD87DA97C027DA9D290758A34A2
:0E009200758CFDD28C308DFDC28CC28DC2905B
:0F00A000758A34758CFDD28C308DFDC28CC28D6B
:0F00AF00DDDCDCD87DC47C027DC4D290758A83F1
:0E00BE00758CFDD28C308DFDC28CC28DC2902F
:0F00CC00758A83758CFDD28C308DFDC28CC28DF0
:0F00DB00DDDCDCD87DDC7C027DDCD290758AC850
:0E00EA00758CFDD28C308DFDC28CC28DC29003
:0F00F800758AC8758CFDD28C308DFDC28CC28D7F
:0F010700DDDCDCD87DF77C027DF7D290758A06AF
:0E011600758CFED28C308DFDC28CC28DC290D5
:0F012400758A06758CFED28C308DFDC28CC28D13
:0F013300DDDCDCD87DAE7C037DAED290758A23F7
:0E014200758CFED28C308DFDC28CC28DC290A9
:0F015000758A23758CFED28C308DFDC28CC28DCA
:07015F00DDDCDCD802000327
:00000001FF
