:10000000758920E4C3759850758DF3758BF3D28E86
:0F001000C2983098FDE599B4300780F6B43906F0
:10001F00800840EF80F750EB540FFB7589217D82EC
:10002F007C027C027D82D290758A44758CFCD28CC6
:0F003F00308DFDC28CC28DC290758A44758CFCC9
:10004E00D28C308DFDC28CC28DDDDCDCD8DBD4FBD6
:10005E007D8A7C027C027D8AD290758AAD758CFC7D
:0E006E00D28C308DFDC28CC28DC290758AADD1
:10007C00758CFCD28C308DFDC28CC28DDDDCDCD855
:0E008C00FB7DA47C027C027DA4D290758A0AC2
:0E009A00758CFDD28C308DFDC28CC28DC29053
:0F00A800758A0A758CFDD28C308DFDC28CC28D8D
:0F00B700DDDCDCD8FB7DA97C027C027DA9D29028
:0F00C600758A34758CFDD28C308DFDC28CC28D45
:0F00D500C290758A34758CFDD28C308DFDC28C33
:0F00E400C28DDDDCDCD8FB7DC47C027C027DC4D8
:0F00F300D290758A83758CFDD28C308DFDC28CB6
:0F010200C28DC290758A83758CFDD28C308DFDB5
:0F011100C28CC28DDDDCDCD8FB7DDC7C027C0285
:0F0120007DDCD290758AC8758CFDD28C308DFD38
:0E012F00C28CC28DC290758AC8758CFDD28CB0
:10013D00308DFDC28CC28DDDDCDCD8FB7DF77C0201
:0E014D007C027DF7D290758A06758CFED28CEE
:0F015B00308DFDC28CC28DC290758A06758CFEE8
:10016A00D28C308DFDC28CC28DDDDCDCD8FB7DAE3D
:10017A007C037C037DAED290758A23758CFED28C6B
:0F018A00308DFDC28CC28DC290758A23758CFE9C
:10019900D28C308DFDC28CC28DDDDCDCD802000032
:00000001FF
